:1000000012003512007374481200577449120057D9
:0F001000748A1200657447120057746F120057FC
:0F001F00746F1200577467120057746C120057F9
:0E002E00746512005780FE7438120065740E5F
:0F003C0012006574011200657406120065D297F8
:10004B00C2A1D2A0D2A2C2A22097F922F590D2A12E
:10005B00C2A0D2A2C2A212004922F590C2A1C2A094
:10006B00D2A2C2A212004922D2A2C2A17401C2A280
:10007B00120049221200351200737448115774494B
:03008B0012005709
:00000001FF
