:10000000C2B2C2B1C2B0C2A002005600D2B2000059
:100010000000000000000000C2B222781800D8FEE4
:10002000227911789100D8FED9F90022C2B1D2B05C
:0E003000110B111B22C2B1C2B0110B111B2209
:0F003E0075A00111352275A00211352275A01C85
:10004D0011352275A018113522112175A003110B40
:0F005D001121110B1121110B112175A038113533
:0E006C0075A006113575A00C1135113E11441A
:0F007A0075A0C0113575A048112C75A041112C2F
:0F00890075A04C112C75A04C112C75A04F112C8B
:0F00980075A020112C75A057112C75A045112CA7
:0F00A70075A04C112C75A0AC112C75A021112C3B
:0F00B6007A321A1150111BDAF90200C27A321A8B
:0900C500114A111BDAF980E9006F
:00000001FF
