:10000000C2B2C2B1C2B0C2A002006A1718191A1B4C
:100010001C1D1E1F2000D2B20000000000000000C6
:100020000000C2B222781800D8FE2279117891001F
:10003000D8FED9F90022E49360051140A380F7228D
:0F004000C2B1D2B01115112522C2B1C2B0111533
:0F004F0011252275A00111492275A00211492225
:0E005E0075A01C11492275A018114922112B02
:0F006C0075A0031115112B1115112B1115112B47
:0F007B0075A038114975A006114975A00C1149DF
:0F008A001152115890000B11360200D275A0C010
:0F009900114975A048114075A041114075A04C48
:0F00A800114075A04C114075A04F114075A0205C
:0F00B700114075A057114075A045114075A04C20
:0F00C600114075A0AC114075A02111407A321A7B
:1000D50011641125DAF90200DE7A321A115E112552
:0500E500DAF980E900DA
:00000001FF
